{
  "contractName": "ProductManager",
  "abi": [
    {
      "anonymous": false,
      "inputs": [
        {
          "indexed": false,
          "internalType": "uint256",
          "name": "_productIndex",
          "type": "uint256"
        },
        {
          "indexed": false,
          "internalType": "uint256",
          "name": "_step",
          "type": "uint256"
        },
        {
          "indexed": false,
          "internalType": "address",
          "name": "productPaymentAddress",
          "type": "address"
        }
      ],
      "name": "ProductStateChanged",
      "type": "event"
    },
    {
      "inputs": [],
      "name": "_owner",
      "outputs": [
        {
          "internalType": "address",
          "name": "",
          "type": "address"
        }
      ],
      "stateMutability": "view",
      "type": "function",
      "constant": true
    },
    {
      "inputs": [],
      "name": "index",
      "outputs": [
        {
          "internalType": "uint256",
          "name": "",
          "type": "uint256"
        }
      ],
      "stateMutability": "view",
      "type": "function",
      "constant": true
    },
    {
      "inputs": [],
      "name": "isOwner",
      "outputs": [
        {
          "internalType": "bool",
          "name": "",
          "type": "bool"
        }
      ],
      "stateMutability": "view",
      "type": "function",
      "constant": true
    },
    {
      "inputs": [
        {
          "internalType": "uint256",
          "name": "",
          "type": "uint256"
        }
      ],
      "name": "products",
      "outputs": [
        {
          "internalType": "string",
          "name": "productUid",
          "type": "string"
        },
        {
          "internalType": "uint256",
          "name": "price",
          "type": "uint256"
        },
        {
          "internalType": "enum ProductManager.ProductState",
          "name": "state",
          "type": "uint8"
        },
        {
          "internalType": "contract ProductPaymentHandler",
          "name": "paymentHandler",
          "type": "address"
        }
      ],
      "stateMutability": "view",
      "type": "function",
      "constant": true
    },
    {
      "inputs": [
        {
          "internalType": "string",
          "name": "_id",
          "type": "string"
        },
        {
          "internalType": "uint256",
          "name": "_price",
          "type": "uint256"
        }
      ],
      "name": "createProduct",
      "outputs": [],
      "stateMutability": "nonpayable",
      "type": "function"
    },
    {
      "inputs": [
        {
          "internalType": "uint256",
          "name": "_productIndex",
          "type": "uint256"
        }
      ],
      "name": "triggerPayment",
      "outputs": [],
      "stateMutability": "payable",
      "type": "function",
      "payable": true
    },
    {
      "inputs": [
        {
          "internalType": "uint256",
          "name": "_productIndex",
          "type": "uint256"
        }
      ],
      "name": "triggerDelivery",
      "outputs": [],
      "stateMutability": "nonpayable",
      "type": "function"
    },
    {
      "inputs": [],
      "name": "withdraw",
      "outputs": [],
      "stateMutability": "nonpayable",
      "type": "function"
    },
    {
      "inputs": [],
      "name": "renounceOwnership",
      "outputs": [],
      "stateMutability": "nonpayable",
      "type": "function"
    }
  ],
  "bytecode": "0x6080604052336000806101000a81548173ffffffffffffffffffffffffffffffffffffffff021916908373ffffffffffffffffffffffffffffffffffffffff1602179055506114bb806100536000396000f3fe6080604052600436106100865760003560e01c8063800fb83f11610059578063800fb83f146101e75780638f32d59b14610215578063b2bdfa7b14610244578063cd31831e1461029b578063e9300c6c146102d657610086565b80632986c0e51461008b5780633ccfd60b146100b6578063715018a6146100cd5780637acc0b20146100e4575b600080fd5b34801561009757600080fd5b506100a06103a8565b6040518082815260200191505060405180910390f35b3480156100c257600080fd5b506100cb6103ae565b005b3480156100d957600080fd5b506100e2610471565b005b3480156100f057600080fd5b5061011d6004803603602081101561010757600080fd5b810190808035906020019092919050505061053c565b604051808060200185815260200184600281111561013757fe5b60ff1681526020018373ffffffffffffffffffffffffffffffffffffffff1673ffffffffffffffffffffffffffffffffffffffff168152602001828103825286818151815260200191508051906020019080838360005b838110156101a957808201518184015260208101905061018e565b50505050905090810190601f1680156101d65780820380516001836020036101000a031916815260200191505b509550505050505060405180910390f35b610213600480360360208110156101fd57600080fd5b8101908080359060200190929190505050610631565b005b34801561022157600080fd5b5061022a610843565b604051808215151515815260200191505060405180910390f35b34801561025057600080fd5b5061025961089a565b604051808273ffffffffffffffffffffffffffffffffffffffff1673ffffffffffffffffffffffffffffffffffffffff16815260200191505060405180910390f35b3480156102a757600080fd5b506102d4600480360360208110156102be57600080fd5b81019080803590602001909291905050506108bf565b005b3480156102e257600080fd5b506103a6600480360360408110156102f957600080fd5b810190808035906020019064010000000081111561031657600080fd5b82018360208201111561032857600080fd5b8035906020019184600183028401116401000000008311171561034a57600080fd5b91908080601f016020809104026020016040519081016040528093929190818152602001838380828437600081840152601f19601f82011690508083019250505050505050919291929080359060200190929190505050610add565b005b60025481565b6103b6610843565b610428576040517f08c379a00000000000000000000000000000000000000000000000000000000081526004018080602001828103825260208152602001807f4f776e61626c653a2063616c6c6572206973206e6f7420746865206f776e657281525060200191505060405180910390fd5b3373ffffffffffffffffffffffffffffffffffffffff166108fc479081150290604051600060405180830381858888f1935050505015801561046e573d6000803e3d6000fd5b50565b610479610843565b6104eb576040517f08c379a00000000000000000000000000000000000000000000000000000000081526004018080602001828103825260208152602001807f4f776e61626c653a2063616c6c6572206973206e6f7420746865206f776e657281525060200191505060405180910390fd5b6040517f08c379a00000000000000000000000000000000000000000000000000000000081526004018080602001828103825260258152602001806114616025913960400191505060405180910390fd5b6001602052806000526040600020600091509050806000018054600181600116156101000203166002900480601f0160208091040260200160405190810160405280929190818152602001828054600181600116156101000203166002900480156105e85780601f106105bd576101008083540402835291602001916105e8565b820191906000526020600020905b8154815290600101906020018083116105cb57829003601f168201915b5050505050908060010154908060020160009054906101000a900460ff16908060020160019054906101000a900473ffffffffffffffffffffffffffffffffffffffff16905084565b34600160008381526020019081526020016000206001015411156106a0576040517f08c379a000000000000000000000000000000000000000000000000000000000815260040180806020018281038252602d815260200180611434602d913960400191505060405180910390fd5b600060028111156106ad57fe5b6001600083815260200190815260200160002060020160009054906101000a900460ff1660028111156106dc57fe5b14610732576040517f08c379a000000000000000000000000000000000000000000000000000000000815260040180806020018281038252604d8152602001806113e7604d913960600191505060405180910390fd5b600180600083815260200190815260200160002060020160006101000a81548160ff0219169083600281111561076457fe5b02179055507fa04c3ac61bf2138ed180c33d5711935e6e6e9100b7312b3bbe5ee8ab7536a669816001600084815260200190815260200160002060020160009054906101000a900460ff1660028111156107ba57fe5b6001600085815260200190815260200160002060020160019054906101000a900473ffffffffffffffffffffffffffffffffffffffff16604051808481526020018381526020018273ffffffffffffffffffffffffffffffffffffffff1673ffffffffffffffffffffffffffffffffffffffff168152602001935050505060405180910390a150565b60008060009054906101000a900473ffffffffffffffffffffffffffffffffffffffff1673ffffffffffffffffffffffffffffffffffffffff163373ffffffffffffffffffffffffffffffffffffffff1614905090565b6000809054906101000a900473ffffffffffffffffffffffffffffffffffffffff1681565b6108c7610843565b610939576040517f08c379a00000000000000000000000000000000000000000000000000000000081526004018080602001828103825260208152602001807f4f776e61626c653a2063616c6c6572206973206e6f7420746865206f776e657281525060200191505060405180910390fd5b6001600281111561094657fe5b6001600083815260200190815260200160002060020160009054906101000a900460ff16600281111561097557fe5b146109cb576040517f08c379a00000000000000000000000000000000000000000000000000000000081526004018080602001828103825260338152602001806113b46033913960400191505060405180910390fd5b60026001600083815260200190815260200160002060020160006101000a81548160ff021916908360028111156109fe57fe5b02179055507fa04c3ac61bf2138ed180c33d5711935e6e6e9100b7312b3bbe5ee8ab7536a669816001600084815260200190815260200160002060020160009054906101000a900460ff166002811115610a5457fe5b6001600085815260200190815260200160002060020160019054906101000a900473ffffffffffffffffffffffffffffffffffffffff16604051808481526020018381526020018273ffffffffffffffffffffffffffffffffffffffff1673ffffffffffffffffffffffffffffffffffffffff168152602001935050505060405180910390a150565b610ae5610843565b610b57576040517f08c379a00000000000000000000000000000000000000000000000000000000081526004018080602001828103825260208152602001807f4f776e61626c653a2063616c6c6572206973206e6f7420746865206f776e657281525060200191505060405180910390fd5b60003060025483604051610b6a90610d9c565b808473ffffffffffffffffffffffffffffffffffffffff1673ffffffffffffffffffffffffffffffffffffffff1681526020018381526020018281526020019350505050604051809103906000f080158015610bca573d6000803e3d6000fd5b5090508060016000600254815260200190815260200160002060020160016101000a81548173ffffffffffffffffffffffffffffffffffffffff021916908373ffffffffffffffffffffffffffffffffffffffff160217905550826001600060025481526020019081526020016000206000019080519060200190610c50929190610da9565b508160016000600254815260200190815260200160002060010181905550600060016000600254815260200190815260200160002060020160006101000a81548160ff02191690836002811115610ca357fe5b02179055507fa04c3ac61bf2138ed180c33d5711935e6e6e9100b7312b3bbe5ee8ab7536a66960025460016000600254815260200190815260200160002060020160009054906101000a900460ff166002811115610cfd57fe5b60016000600254815260200190815260200160002060020160019054906101000a900473ffffffffffffffffffffffffffffffffffffffff16604051808481526020018381526020018273ffffffffffffffffffffffffffffffffffffffff1673ffffffffffffffffffffffffffffffffffffffff168152602001935050505060405180910390a1600260008154809291906001019190505550505050565b61056580610e4f83390190565b828054600181600116156101000203166002900490600052602060002090601f016020900481019282601f10610dea57805160ff1916838001178555610e18565b82800160010185558215610e18579182015b82811115610e17578251825591602001919060010190610dfc565b5b509050610e259190610e29565b5090565b610e4b91905b80821115610e47576000816000905550600101610e2f565b5090565b9056fe608060405234801561001057600080fd5b506040516105653803806105658339818101604052606081101561003357600080fd5b8101908080519060200190929190805190602001909291908051906020019092919050505082600260016101000a81548173ffffffffffffffffffffffffffffffffffffffff021916908373ffffffffffffffffffffffffffffffffffffffff16021790555081600181905550806000819055505050506104ac806100b96000396000f3fe6080604052600436106100435760003560e01c8063230b9da3146103255780632986c0e51461037c578063a035b1fe146103a7578063c25fffa5146103d257610320565b3661032057600260009054906101000a900460ff16156100cb576040517f08c379a00000000000000000000000000000000000000000000000000000000081526004018080602001828103825260188152602001807f50726f6475637420697320616c726561647920706169642e000000000000000081525060200191505060405180910390fd5b6000543414610125576040517f08c379a00000000000000000000000000000000000000000000000000000000081526004018080602001828103825260308152602001806104476030913960400191505060405180910390fd5b6000600260019054906101000a900473ffffffffffffffffffffffffffffffffffffffff1673ffffffffffffffffffffffffffffffffffffffff1634600154604051602401808281526020019150506040516020818303038152906040527f800fb83f000000000000000000000000000000000000000000000000000000007bffffffffffffffffffffffffffffffffffffffffffffffffffffffff19166020820180517bffffffffffffffffffffffffffffffffffffffffffffffffffffffff83818316178352505050506040518082805190602001908083835b602083106102245780518252602082019150602081019050602083039250610201565b6001836020036101000a03801982511681845116808217855250505050505090500191505060006040518083038185875af1925050503d8060008114610286576040519150601f19603f3d011682016040523d82523d6000602084013e61028b565b606091505b5050905080610302576040517f08c379a000000000000000000000000000000000000000000000000000000000815260040180806020018281038252601d8152602001807f5472616e73616374696f6e2077616e2774207375636365737366756c2e00000081525060200191505060405180910390fd5b6001600260006101000a81548160ff02191690831515021790555050005b600080fd5b34801561033157600080fd5b5061033a610401565b604051808273ffffffffffffffffffffffffffffffffffffffff1673ffffffffffffffffffffffffffffffffffffffff16815260200191505060405180910390f35b34801561038857600080fd5b50610391610427565b6040518082815260200191505060405180910390f35b3480156103b357600080fd5b506103bc61042d565b6040518082815260200191505060405180910390f35b3480156103de57600080fd5b506103e7610433565b604051808215151515815260200191505060405180910390f35b600260019054906101000a900473ffffffffffffffffffffffffffffffffffffffff1681565b60015481565b60005481565b600260009054906101000a900460ff168156fe596f75206d757374207061792074686520657861637420616d6f757420746861742070726f6475637420636f7374732ea26469706673582212200171828eb6e3a25a3d3a2b626d31e40710d93308cf306c0a51c73698b95565e164736f6c6343000600003350726f64756374206d75737420626520706169642066697273742c20746f2062652073656e7420666f722064656c697665727943616e2774207075726368617365207468652070726f647563742c2070726f6475637420697320616c726561647920707572636861736564206f722073656e7420666f722064656c697665727943616e2774207075726368617365207468652070726f647563742c206e6f7420656e6f756768206d6f6e65792e596f75277265206e6f742061626c6520746f2072656e6f756e6365206f776e657273686970a264697066735822122069705b7c835070c09baea381b996b0bf2a6bd3b1381a081de627be9f1e2792bc64736f6c63430006000033",
  "source": "pragma solidity ^0.6.0.;\nimport \"./Ownable.sol\";\nimport \"./ProductPaymentHandler.sol\";\n\n\ncontract ProductManager is Ownable{\n\n\n    enum ProductState{Created, Paid, Delivered}\n\n\n    struct Product{\n        string productUid;\n        uint price;\n        ProductState state;\n        ProductPaymentHandler paymentHandler;\n    }\n\n\n    mapping(uint => Product) public products;\n    uint public index;\n\n\n    event ProductStateChanged(uint _productIndex, uint _step, address productPaymentAddress);\n\n\n    function createProduct(string memory _id, uint _price) public onlyOwner {\n        ProductPaymentHandler paymentHandler = new ProductPaymentHandler(this, index, _price);\n        products[index].paymentHandler = paymentHandler;\n        products[index].productUid = _id;\n        products[index].price = _price;\n        products[index].state = ProductState.Created;\n\n        emit ProductStateChanged(index, uint(products[index].state), address(products[index].paymentHandler));\n        index++;\n    }\n\n    function triggerPayment(uint _productIndex) public payable{\n        require(products[_productIndex].price <= msg.value, \"Can't purchase the product, not enough money.\");\n        require(products[_productIndex].state == ProductState.Created, \"Can't purchase the product, product is already purchased or sent for delivery\");\n\n        products[_productIndex].state = ProductState.Paid;\n        emit ProductStateChanged(_productIndex, uint(products[_productIndex].state), address(products[_productIndex].paymentHandler));\n    }\n\n\n    function triggerDelivery(uint _productIndex) public onlyOwner {\n        require(products[_productIndex].state == ProductState.Paid, \"Product must be paid first, to be sent for delivery\");\n\n        products[_productIndex].state = ProductState.Delivered;\n        emit ProductStateChanged(_productIndex, uint(products[_productIndex].state), address(products[_productIndex].paymentHandler));\n    }\n\n\n    function withdraw() public onlyOwner{\n        msg.sender.transfer(address(this).balance);\n    }\n\n\n    function renounceOwnership() public onlyOwner {\n        revert(\"You're not able to renounce ownership\");\n    }\n}",
  "sourcePath": "/home/per/Desktop/productmanager/contracts/ProductManager.sol",
  "compiler": {
    "name": "solc",
    "version": "0.6.0+commit.26b70077.Emscripten.clang"
  },
  "schemaVersion": "3.4.1",
  "updatedAt": "2021-06-07T17:58:31.877Z",
  "networkType": "ethereum",
  "devdoc": {
    "methods": {}
  },
  "userdoc": {
    "methods": {}
  }
}